01000000000000ALABAMA                                                                                            01          485897916             093013
01100100100000AUTAUGA COUNTY                                                  Autauga                            0100199001    5534716             093013
01100200200000BALDWIN COUNTY                                                  Baldwin                            0100399003   20370916             093013
01100400400000BIBB COUNTY                                                     Bibb                               0100799007    2258316             093013
01100600600000BULLOCK COUNTY                                                  Bullock                            0101199011    1069616             093013
01100700700000BUTLER COUNTY                                                   Butler                             0101399013    2015416             093013
01100800800000CALHOUN COUNTY                                                  Calhoun                            0101599015   11562016             093013
01101101100000CHILTON COUNTY                                                  Chilton                            0102199021    4394316             093013
01101401400000CLAY COUNTY                                                     Clay                               0102799027    1355516             093013
01101601600000COFFEE COUNTY                                                   Coffee                             0103199031    5121116             093013
01101701700000COLBERT COUNTY                                                  Colbert                            0103399033    5435416             093013
01102202200000CULLMAN COUNTY                                                  Cullman                            0104399043    8200516             093013
01102402400000DALLAS COUNTY                                                   Dallas                             0104799047    4113116             093013
01102602600000ELMORE COUNTY                                                   Elmore                             0105199051    8146816             093013
01102702700000ESCAMBIA COUNTY                                                 Escambia                           0105399053    3778916             093013
01102802800000ETOWAH COUNTY                                                   Etowah                             0105599055   10305716             093013
01103203200000GREENE COUNTY                                                   Greene                             0106399063     847916             093013
01103503500000HOUSTON COUNTY                                                  Houston                            0106999069   10417316             093013
01103703700000JEFFERSON COUNTY                                                Jefferson                          0107399073   66036716             093013
01103903900000LAUDERDALE COUNTY                                               Lauderdale                         0107799077    9259616             093013
01104104100000LEE COUNTY                                                      Lee                                0108199081   15699316             093013
01104204200000LIMESTONE COUNTY                                                Limestone                          0108399083    9166316             093013
01104504500000MADISON COUNTY                                                  Madison                            0108999089   35308916             093013
01104804800000MARSHALL COUNTY                                                 Marshall                           0109599095    9472516             093013
01104904900000MOBILE COUNTY                                                   Mobile                             0109799097   41539516             093013
01105105100000MONTGOMERY COUNTY                                               Montgomery                         0110199101   22651916             093013
01105205200000MORGAN COUNTY                                                   Morgan                             0110399103   11956516             093013
01105505500000PIKE COUNTY                                                     Pike                               0110999109    3304616             093013
01105705700000RUSSELL COUNTY                                                  Russell                            0111399113    5966016             093013
01105905900000SHELBY COUNTY                                                   Shelby                             0111799117   20871316             093013
01106106100000TALLADEGA COUNTY                                                Talladega                          0112199121    8086216             093013
01106206200000TALLAPOOSA COUNTY                                               Tallapoosa                         0112399123    4084416             093013
01106306300000TUSCALOOSA COUNTY                                               Tuscaloosa                         0112599125   20397616             093013
01106406400000WALKER COUNTY                                                   Walker                             0112799127    6529416             093013
01200100300000PRATTVILLE CITY                                                 Autauga                            0100162328    3542016             093013
01200200200000DAPHNE CITY                                                     Baldwin                            0100319648    2489616             093013
01200200400000FAIRHOPE CITY                                                   Baldwin                            0100325240    1873016             093013
01200200500000FOLEY CITY                                                      Baldwin                            0100326992    1721816             093013
01200200800000SUMMERDALE TOWN                                                 Baldwin                            0100373872     112816             093013
01200210200000PERDIDO BEACH TOWN                                              Baldwin                            0100359088      63116             093013
01200240100000ORANGE BEACH CITY                                               Baldwin                            0100357144     585016             123113
01200250100000GULF SHORES CITY                                                Baldwin                            0100332272    1113116             093013
01200800100000ANNISTON CITY                                                   Calhoun                            0101501852    2234716             093013
01200910100000CUSSETA TOWN                                                    Chambers                           0101719216      12416                 13
01200960100000VALLEY CITY                                                     Chambers                           0101778204     946416             093013
01201600200000ENTERPRISE CITY                                                 Coffee                             0103124184    2797816             093013
01201700400000MUSCLE SHOALS CITY                                              Colbert                            0103353016    1370616             093013
01201700500000SHEFFIELD CITY                                                  Colbert                            0103369648     910816             093013
01201700600000TUSCUMBIA CITY                                                  Colbert                            0103377280     847416             093013
01202000600000RED LEVEL TOWN                                                  Covington                          0103963768      49016             093013
01202200100000CULLMAN CITY                                                    Cullman                            0104318976    1535016             093013
01202690100000MILLBROOK CITY                                                  Elmore                             0105148712    1531416             093013
01202700400000FLOMATON TOWN                                                   Escambia                           0105326824     141116             093013
01202800300000GADSDEN CITY                                                    Etowah                             0105528696    3608416             093013
01203000300000RED BAY CITY                                                    Franklin                           0105963576     313116             093013
01203000400000RUSSELLVILLE CITY                                               Franklin                           0105967056     984716             093013
01203500200000COLUMBIA TOWN                                                   Houston                            0106916744      73716             093013
01203500400000DOTHAN CITY                                                     Houston                            0106921184    6856716             093013
01203600500000SCOTTSBORO CITY                                                 Jackson                            0107168736    1472216             093013
01203700200000BESSEMER CITY                                                   Jefferson                          0107305980    2673016             093013
01203700300000BIRMINGHAM CITY                                                 Jefferson                          0107307000   21246116             063013
01203700800000FAIRFIELD CITY                                                  Jefferson                          0107325120    1090716             093013
01203700900000FULTONDALE CITY                                                 Jefferson                          0107328552     904816             093013
01203701000000GARDENDALE CITY                                                 Jefferson                          0107329056    1371116             093013
01203701200000HOMEWOOD CITY                                                   Jefferson                          0107335800    2570816             093013
01203701300000IRONDALE CITY                                                   Jefferson                          0107337864    1242316             093013
01203701900000MOUNTAIN BROOK CITY                                             Jefferson                          0107351696    2069116             093013
01203702500000TRUSSVILLE CITY                                                 Jefferson                          0107376944    2102316             093013
01203702600000VESTAVIA HILLS CITY                                             Jefferson                          0107378552    3417416             093013
01203750400000HUEYTOWN CITY                                                   Jefferson                          0107336448    1571016             093013
01203770200000WEST JEFFERSON TOWN                                             Jefferson                          0107381336      33616             093013
01203780100000HOOVER CITY                                                     Jefferson                          0107335896    8484816             093013
01203900100000FLORENCE CITY                                                   Lauderdale                         0107726896    4002616             093013
01204000100000COURTLAND TOWN                                                  Lawrence                           0107918040      59716             093013
01204100100000AUBURN CITY                                                     Lee                                0108103076    6205916             093013
01204100200000OPELIKA CITY                                                    Lee                                0108157048    2952716             093013
01204200200000ATHENS CITY                                                     Limestone                          0108302956    2496616             093013
01204500100000HUNTSVILLE CITY                                                 Madison                            0108937000   19058216             093013
01204500200000MADISON CITY                                                    Madison                            0108945784    4696216             093013
01204710100000TWIN TOWN                                                       Marion                             0109377352      38916             093013
01204800100000ALBERTVILLE CITY                                                Marshall                           0109500988    2146216             093013
01204900400000MOBILE CITY                                                     Mobile                             0109750000   19428816             093013
01204900500000PRICHARD CITY                                                   Mobile                             0109762496    2235116             093013
01204910100000SEMMES CITY                                                     Mobile                             0109769240     388616             093013
01204950100000SARALAND CITY                                                   Mobile                             0109768160    1390616             093013
01205100100000MONTGOMERY CITY                                                 Montgomery                         0110151000   20060216             093013
01205200200000DECATUR CITY                                                    Morgan                             0110320104    5543716             093013
01205200400000HARTSELLE CITY                                                  Morgan                             0110333448    1449316             093013
01205500200000BRUNDIDGE CITY                                                  Pike                               0110910240     198916             093013
01205500400000TROY CITY                                                       Pike                               0110976920    1885316             093013
01205700200000PHENIX CITY                                                     Russell                            0111359472    3757016             093013
01205800300000PELL CITY CITY                                                  St Clair                           0111558896    1364616             093013
01205900100000ALABASTER CITY                                                  Shelby                             0111700820    3270716             093013
01205900200000CALERA CITY                                                     Shelby                             0111711416    1321316             093013
01205930100000CHELSEA CITY                                                    Shelby                             0111714104    1205916             093013
01205970100000PELHAM CITY                                                     Shelby                             0111758848    2288516             093013
01206100200000CHILDERSBURG CITY                                               Talladega                          0112114464     504616             093013
01206100500000SYLACAUGA CITY                                                  Talladega                          0112174352    1265716             093013
01206100600000TALLADEGA CITY                                                  Talladega                          0112174592    1570916             093013
01206200100000ALEXANDER CITY CITY                                             Tallapoosa                         0112301132    1471816             093013
01206300100000NORTHPORT CITY                                                  Tuscaloosa                         0112555200    2477216             093013
01206300200000TUSCALOOSA CITY                                                 Tuscaloosa                         0112577256    9833216             093013
01206400400000JASPER CITY                                                     Walker                             0112738416    1407116             093013
01400137000000AUTAUGAVILLE WATER AUTHORITY                                    Autauga                            01001                         91      13
01400160100000AUTAUGA COUNTY WATER AUTHORITY                                  Autauga                            01001                         91  093013
01400241300000BALDWIN COUNTY BOARD OF MENTAL HEALTH                           Baldwin                            01003                         32  093013
01400290200000ORANGE BEACH WATER SEWER AND FIRE PROTECTION AUTHORITY          Baldwin                            01003                         91  103113
01400290800000BALDWIN COUNTY EASTERN SHORE HEALTH CARE AUTHORITY              Baldwin                            01003                         40  033113
01400340100000SPECTRACARE HEALTH SYSTEMS                                      Barbour                            01005                         32  093013
01400800100000ANNISTON HOUSING AUTHORITY                                      Calhoun                            01015                         50  033113
01400810200000MCCLELLAN DEVELOPMENT AUTHORITY                                 Calhoun                            01015                         99      13
01400840200000NORTHEAST ALABAMA REGIONAL MEDICAL CENTER                       Calhoun                            01015                         40  063013
01401060100000NORTHEAST ALABAMA WATER AUTHORITY                               Cherokee                           01019                         91  123113
01401100100000CHILTON COUNTY HOSPITAL BOARD                                   Chilton                            01021                         40  093013
01401300100000CLARKE MOBILE COUNTIES GAS DISTRICT                             Clarke                             01025                         93  093013
01401400100000CLAY COUNTY HEALTHCARE AUTHORITY                                Clay                               01027                         40  093013
01401450400000EAST CENTRAL ALABAMA GAS DISTRICT                               Clay                               01027                         93  033113
01401550300000CLEBURNE COUNTY HOSPITAL BOARD                                  Cleburne                           01029                         77  093013
01401612300000ELBA HEALTH CARE AUTHORITY                                      Coffee                             01031                         40      13
01401700100000NORTHWEST ALABAMA HEALTH CARE AUTHORITY (COLBERT COUNTY)        Colbert                            01033                         40  093013
01401740100000NORTH ALABAMA GAS DISTRICT                                      Colbert                            01033                         93  093013
01401740300000NORTHWEST ALABAMA REGIONAL AIRPORT AUTHORITY                    Colbert                            01033                         01  093013
01401820200000OWASSA AND BROWNVILLE WATERWORKS AND FIRE PROTECTION AUTHORITY  Conecuh                            01035                         91  123113
01401870100000SOUTH ALABAMA GAS DISTRICT                                      Conecuh                            01035                         93  093013
01402000200000SOUTHEAST ALABAMA GAS DISTRICT                                  Covington                          01039                         93  093013
01402050100000ANDALUSIA HOUSING AUTHORITY                                     Covington                          01039                         50  063013
01402250200000CULLMAN JEFFERSON COUNTY GAS DISTRICT                           Cullman                            01043                         93  043013
01402280100000CULLMAN COUNTY HEALTH CARE AUTHORITY                            Cullman                            01043                         40  063013
01402300100000DALE COUNTY HOSPITAL ASSOCIATION                                Dale                               01045                         40  093013
01402500300000DEKALB CHEROKEE NATURAL GAS DISTRICT                            DeKalb                             01049                         93  083113
01402500500000FORT PAYNE CITY IMPROVEMENT AUTHORITY                           DeKalb                             01049                         92  063013
01402560100000NORTHEAST ALABAMA WATER SEWER AND FIRE PROTECTION DISTRICT      DeKalb                             01049                         98  063013
01402690100000CENTRAL ELMORE COUNTY WATER AND SEWER AUTHORITY                 Elmore                             01051                         91  063013
01402700100000ESCAMBIA COUNTY HEALTH CARE AUTHORITY                           Escambia                           01053                         40  093013
01403020100000FRANKLIN COUNTY WATER SERVICE AUTHORITY                         Franklin                           01059                         99  093013
01403090100000BEAR CREEK DEVELOPMENT AUTHORITY                                Franklin                           01059                         99  093013
01403100200000GENEVA COUNTY HEALTH CARE AUTHORITY                             Geneva                             01061                         40  093013
01403100300000GENEVA COUNTY NATURAL GAS DISTRICT                              Geneva                             01061                         93  073113
01403270300000GREENE COUNTY HOSPITAL BOARD                                    Greene                             01063                         40  093013
01403500400000HOUSTON COUNTY HEALTH CARE AUTHORITY                            Houston                            01069                         40  093013
01403510100000HOUSTON COUNTY COOPERATIVE DISTRICT                             Houston                            01069                         99  093013
01403600100000JACKSON COUNTY HEALTH CARE AUTHORITY                            Jackson                            01071                         40  093013
01403700100000BIRMINGHAM HOUSING AUTHORITY                                    Jefferson                          01073                         50  063013
01403700300000JEFFERSON COUNTY RURAL HOUSING AUTHORITY                        Jefferson                          01073                         50  123113
01403700400000LEEDS HOUSING AUTHORITY                                         Jefferson                          01073                         50  063013
01403710100000VESTAVIA HILLS MOUNTAIN BROOK & HOMEWOOD REGIONAL JAIL AUTHORITYJefferson                          01073                         04  093013
01403712400000DANIEL PAYNE TOWN CENTER COOPERATIVE DISTRICT                   Jefferson                          01073                         89      13
01403714200000LEEDS COOPERATIVE DISTRICT                                      Jefferson                          01073                         40  093013
01403720100000BIRMINGHAM AIRPORT AUTHORITY                                    Jefferson                          01073                         01  063013
01403740100000JEFFERSON-BLOUNT-ST CLAIR MENTAL HEALTH/RETARDATION AUTHORITY   Jefferson                          01073                         32  093013
01403750100000BESSEMER HOUSING AUTHORITY                                      Jefferson                          01073                         50  063013
01403761100000WARRIOR RIVER WATER AUTHORITY                                   Jefferson                          01073                         91  093013
01403761200000BIRMINGHAM JEFFERSON CIVIC CENTER AUTHORITY                     Jefferson                          01073                         61  083113
01403790100000BIRMINGHAM-JEFFERSON COUNTY TRANSIT AUTHORITY                   Jefferson                          01073                         94  093013
01403800200000LAMAR COUNTY NATURAL GAS DISTRICT                               Lamar                              01075                         93  063013
01404030100000NORTH CENTRAL ALABAMA MENTAL HEALTH BOARD                       Lawrence                           01079                         32  093013
01404070200000MOULTON WATER AUTHORITY                                         Lawrence                           01079                         91  093013
01404100200000EAST ALABAMA HEALTH CARE AUTHORITY                              Lee                                01081                         40  093013
01404110100000WEST PACE COOPERATIVE DISTRICT                                  Lee                                01081                         99  093013
01404138000000BEULAH UTILITIES DISTRICT                                       Lee                                01081                         96      13
01404200200000HH HEALTH SYSTEMS ATHENS-LIMESTONE, LLC                         Limestone                          01083                         40  063013
01404540400000HUNTSVILLE HEALTH CARE AUTHORITY                                Madison                            01089                         40  063013
01404560200000HARVEST-MONROVIA WATER AUTHORITY                                Madison                            01089                         91  123113
01404570100000HUNTSVILLE-MADISON COUNTY AIRPORT AUTHORITY                     Madison                            01089                         01  063013
01404612700000TOMBIGBEE HEALTH CARE AUTHORITY                                 Marengo                            01091                         40  093013
01404700300000GUIN HOUSING AUTHORITY                                          Marion                             01093                         50  063013
01404700600000NORTHWEST ALABAMA GAS DISTRICT                                  Marion                             01093                         93  063013
01404800100000BOAZ CITY HOUSING AUTHORITY                                     Marshall                           01095                         50  063013
01404800200000MARSHALL COUNTY GAS DISTRICT                                    Marshall                           01095                         93  083113
01404800300000MARSHALL COUNTY HEALTH CARE AUTHORITY                           Marshall                           01095                         40  093013
01404840100000MARSHALL-JACKSON MENTAL HEALTH BOARD                            Marshall                           01095                         32  093013
01404850300000GUNTERSVILLE HOUSING AUTHORITY                                  Marshall                           01095                         50  063013
01404880100000DOUGLAS WATER AND FIRE PROTECTION AUTHORITY                     Marshall                           01095                         91  093013
01404900100000MOBILE HOUSING BOARD                                            Mobile                             01097                         50  123113
01404900500000MOBILE COUNTY HOSPITAL BOARD                                    Mobile                             01097                         40      13
01404930100000KUSHLA WATER DISTRICT                                           Mobile                             01097                         91  093013
01404940100000MOBILE AIRPORT AUTHORITY                                        Mobile                             01097                         01  093013
01404940400000ALTAPOINTE HEALTH CARE SYSTEMS INC                              Mobile                             01097                         32  093013
01404970400000PRICHARD CITY HOUSING AUTHORITY                                 Mobile                             01097                         50  063013
01404980300000MOBILE COUNTY WATER SEWER FIRE PROTECTION AUTHORITY             Mobile                             01097                         99  022813
01404990200000ST ELMO IRVINGTON WATER AUTHORITY                               Mobile                             01097                         91  123113
01405070100000MONROE COUNTY HOSPITAL BOARD                                    Monroe                             01099                         40  093013
01405100200000MONTGOMERY CITY HOUSING AUTHORITY                               Montgomery                         01101                         50  033113
01405114500000HEALTH CARE AUTHORITY OF BAPTIST HEALTH                         Montgomery                         01101                         40      13
01405140100000MONTGOMERY AREA MENTAL HEALTH AUTHORITY                         Montgomery                         01101                         32  093013
01405140200000ALABAMA MUNICIPAL ELECTRIC AUTHORITY                            Montgomery                         01101                         92  093013
01405200100000DECATUR CITY HOUSING AUTHORITY                                  Morgan                             01103                         50  063013
01405220100000HEALTH CARE AUTHORITY MORGAN COUNTY-CITY OF DECATUR             Morgan                             01103                         40  063013
01405260200000WEST MORGAN-EAST LAWRENCE WATER AND SEWER AUTHORITY             Morgan                             01103                         91  093013
01405480300000PICKENS COUNTY NATURAL GAS DISTRICT                             Pickens                            01107                         93  053113
01405490100000PICKENS COUNTY WATER AUTHORITY                                  Pickens                            01107                         91  093013
01405711000000RUSSELL COUNTY WATER AUTHORITY                                  Russell                            01113                         91  093013
01405835000000CHANDLER MOUNTAIN-GREASY COVE WATER AUTHORITY                   St Clair                           01115                         91  123113
01405900100000CALERA TOWN HOUSING AUTHORITY                                   Shelby                             01117                         50  063013
01405940200000CHILTON AND SHELBY COUNTIES MENTAL HEALTH BOARD                 Shelby                             01117                         32  093013
01406240100000EAST ALABAMA MENTAL HEALTH AND MENTAL RETARDATION BOARD         Tallapoosa                         01123                         32  093013
01406300100000TUSCALOOSA HOUSING AUTHORITY                                    Tuscaloosa                         01125                         50  033113
01406360200000TUSCALOOSA COUNTY PARKING AND TRANSIT AUTHORITY                 Tuscaloosa                         01125                         94  093013
01406390100000DCH HEALTH CARE AUTHORITY                                       Tuscaloosa                         01125                         40  093013
01406690100000WILCOX COUNTY GAS DISTRICT                                      Wilcox                             01131                         93  093013
01406740100000NORTHWEST ALABAMA MENTAL HEALTH BOARD                           Winston                            01133                         32  093013
01500100100000AUTAUGA COUNTY SCHOOL DISTRICT                                  Autauga                            01001                   992310  03093013
01500200100000BALDWIN COUNTY SCHOOL DISTRICT                                  Baldwin                            01003                  2820010  03093013
01500300100000BARBOUR COUNTY SCHOOL DISTRICT                                  Barbour                            01005                   107410  03093013
01500300200000EUFAULA CITY SCHOOL DISTRICT                                    Barbour                            01005                   277310  03093013
01500400100000BIBB COUNTY SCHOOL DISTRICT                                     Bibb                               01007                   351210  03093013
01500500100000BLOUNT COUNTY SCHOOL DISTRICT                                   Blount                             01009                   849810  03093013
01500500200000ONEONTA CITY SCHOOL DISTRICT                                    Blount                             01009                   144810  03093013
01500600100000BULLOCK COUNTY SCHOOL DISTRICT                                  Bullock                            01011                   158510  03093013
01500700100000BUTLER COUNTY SCHOOL DISTRICT                                   Butler                             01013                   337810  03093013
01500800200000ANNISTON CITY SCHOOL DISTRICT                                   Calhoun                            01015                   231210  03093013
01500800300000CALHOUN COUNTY SCHOOL DISTRICT                                  Calhoun                            01015                   941310  03093013
01500800400000JACKSONVILLE CITY SCHOOL DISTRICT                               Calhoun                            01015                   170210  03093013
01500800500000PIEDMONT CITY SCHOOL DISTRICT                                   Calhoun                            01015                   113910  03093013
01500880100000OXFORD CITY SCHOOL DISTRICT                                     Calhoun                            01015                   408410  03093013
01500900100000CHAMBERS COUNTY SCHOOL DISTRICT                                 Chambers                           01017                   407010  03063013
01500900200000LANETT CITY SCHOOL DISTRICT                                     Chambers                           01017                    81210  03093013
01501000100000CHEROKEE COUNTY SCHOOL DISTRICT                                 Cherokee                           01019                   408110  03093013
01501100100000CHILTON COUNTY SCHOOL DISTRICT                                  Chilton                            01021                   786710  03093013
01501200100000CHOCTAW COUNTY SCHOOL DISTRICT                                  Choctaw                            01023                   176910  03093013
01501300100000CLARKE COUNTY SCHOOL DISTRICT                                   Clarke                             01025                   340610  03093013
01501370100000THOMASVILLE CITY SCHOOL DISTRICT                                Clarke                             01025                   152410  03093013
01501400100000CLAY COUNTY SCHOOL DISTRICT                                     Clay                               01027                   206810  03093013
01501500100000CLEBURNE COUNTY SCHOOL DISTRICT                                 Cleburne                           01029                   266910  03093013
01501600100000COFFEE COUNTY SCHOOL DISTRICT                                   Coffee                             01031                   201110  03093013
01501600200000ELBA CITY SCHOOL DISTRICT                                       Coffee                             01031                    82910  03093013
01501600300000ENTERPRISE CITY SCHOOL DISTRICT                                 Coffee                             01031                   651610  03093013
01501700100000COLBERT COUNTY SCHOOL DISTRICT                                  Colbert                            01033                   289510  03093013
01501700200000SHEFFIELD CITY SCHOOL DISTRICT                                  Colbert                            01033                   111310  03093013
01501700300000TUSCUMBIA CITY SCHOOL DISTRICT                                  Colbert                            01033                   158210  03093013
01501750100000MUSCLE SHOALS CITY SCHOOL DISTRICT                              Colbert                            01033                   284010  03093013
01501800100000CONECUH COUNTY SCHOOL DISTRICT                                  Conecuh                            01035                   170910  03093013
01501900100000COOSA COUNTY SCHOOL DISTRICT                                    Coosa                              01037                   127710  03093013
01502000100000ANDALUSIA CITY SCHOOL DISTRICT                                  Covington                          01039                   167010  03093013
01502000200000COVINGTON COUNTY SCHOOL DISTRICT                                Covington                          01039                   315410  03093013
01502000400000OPP CITY SCHOOL DISTRICT                                        Covington                          01039                   138510  03093013
01502100100000CRENSHAW COUNTY SCHOOL DISTRICT                                 Crenshaw                           01041                   229910  03093013
01502200100000CULLMAN CITY SCHOOL DISTRICT                                    Cullman                            01043                   301710  03093013
01502200200000CULLMAN COUNTY SCHOOL DISTRICT                                  Cullman                            01043                   977610  03093013
01502300100000DALE COUNTY SCHOOL DISTRICT                                     Dale                               01045                   291010  03093013
01502300200000OZARK CITY SCHOOL DISTRICT                                      Dale                               01045                   239510  03093013
01502370100000DALEVILLE CITY SCHOOL DISTRICT                                  Dale                               01045                   122410  03093013
01502400100000DALLAS COUNTY SCHOOL DISTRICT                                   Dallas                             01047                   388410  03093013
01502400200000SELMA CITY SCHOOL DISTRICT                                      Dallas                             01047                   415110  03093013
01502500100000DE KALB COUNTY SCHOOL DISTRICT                                  DeKalb                             01049                   890210  03093013
01502500200000FORT PAYNE CITY SCHOOL DISTRICT                                 DeKalb                             01049                   310210  03093013
01502600100000ELMORE COUNTY SCHOOL DISTRICT                                   Elmore                             01051                  1103310  03093013
01502600200000TALLASSEE CITY SCHOOL DISTRICT                                  Elmore                             01051                   194010  03093013
01502700200000BREWTON CITY SCHOOL DISTRICT                                    Escambia                           01053                   122310  03093013
01502700300000ESCAMBIA COUNTY SCHOOL DISTRICT                                 Escambia                           01053                   463010  03093013
01502800100000ATTALLA CITY SCHOOL DISTRICT                                    Etowah                             01055                   167810  03093013
01502800200000ETOWAH COUNTY BOARD OF EDUCATION                                Etowah                             01055                   929610  03093013
01502800300000GADSDEN CITY SCHOOL DISTRICT                                    Etowah                             01055                   554110  03093013
01502900100000FAYETTE COUNTY SCHOOL DISTRICT                                  Fayette                            01057                   241510  03093013
01503000100000FRANKLIN COUNTY SCHOOL DISTRICT                                 Franklin                           01059                   335110  03093013
01503000200000RUSSELLVILLE CITY SCHOOLS                                       Franklin                           01059                   241710  03093013
01503100100000GENEVA COUNTY SCHOOL DISTRICT                                   Geneva                             01061                   274010  03093013
01503180100000GENEVA CITY SCHOOL DISTRICT                                     Geneva                             01061                   124910  03093013
01503200100000GREENE COUNTY SCHOOL DISTRICT                                   Greene                             01063                   135210  03093013
01503300100000HALE COUNTY SCHOOL DISTRICT                                     Hale                               01065                   289510  03093013
01503400100000HENRY COUNTY SCHOOL DISTRICT                                    Henry                              01067                   286210  03093013
01503500100000DOTHAN CITY SCHOOL DISTRICT                                     Houston                            01069                   931210  03093013
01503500200000HOUSTON COUNTY SCHOOL DISTRICT                                  Houston                            01069                   638110  03093013
01503600100000JACKSON COUNTY SCHOOL DISTRICT                                  Jackson                            01071                   589710  03093013
01503600200000SCOTTSBORO CITY SCHOOL DISTRICT                                 Jackson                            01071                   271210  03093013
01503700100000BESSEMER CITY SCHOOL DISTRICT                                   Jefferson                          01073                   451010  03093013
01503700200000BIRMINGHAM CITY SCHOOL DISTRICT                                 Jefferson                          01073                  2599010  03093013
01503700300000FAIRFIELD CITY SCHOOL DISTRICT                                  Jefferson                          01073                   210310  03093013
01503700400000JEFFERSON COUNTY BOARD OF EDUCATION                             Jefferson                          01073                  3586010  03093013
01503700500000TARRANT CITY SCHOOL DISTRICT                                    Jefferson                          01073                   129910  03093013
01503710100000LEEDS CITY SCHOOL DISTRICT                                      Jefferson                          01073                   156610  03    13
01503710200000TRUSSVILLE CITY SCHOOL DISTRICT                                 Jefferson                          01073                   418110  03    13
01503740100000HOOVER CITY SCHOOL DISTRICT                                     Jefferson                          01073                  1323210  03093013
01503750100000MOUNTAIN BROOK SCHOOLS                                          Jefferson                          01073                   449310  03093013
01503780100000HOMEWOOD CITY SCHOOL DISTRICT                                   Jefferson                          01073                   361110  03093013
01503780200000MIDFIELD CITY SCHOOL DISTRICT                                   Jefferson                          01073                   119510  03093013
01503780400000VESTAVIA HILLS CITY SCHOOL DISTRICT                             Jefferson                          01073                   635810  03093013
01503800100000LAMAR COUNTY SCHOOL DISTRICT                                    Lamar                              01075                   236710  03093013
01503900100000FLORENCE CITY SCHOOL DISTRICT                                   Lauderdale                         01077                   426110  03093013
01503900200000LAUDERDALE COUNTY SCHOOL DISTRICT                               Lauderdale                         01077                   888510  03093013
01504000100000LAWRENCE COUNTY SCHOOL DISTRICT                                 Lawrence                           01079                   520710  03093013
01504100100000LEE COUNTY SCHOOL DISTRICT                                      Lee                                01081                   981510  03093013
01504100200000OPELIKA CITY SCHOOLS                                            Lee                                01081                   422110  03093013
01504170100000AUBURN CITY SCHOOL DISTRICT                                     Lee                                01081                   674310  03093013
01504200100000ATHENS CITY SCHOOL DISTRICT                                     Limestone                          01083                   316810  03093013
01504200200000LIMESTONE COUNTY SCHOOL DISTRICT                                Limestone                          01083                   885210  03093013
01504300100000LOWNDES COUNTY SCHOOL DISTRICT                                  Lowndes                            01085                   185310  03093013
01504400100000MACON COUNTY SCHOOL DISTRICT                                    Macon                              01087                   263110  03093013
01504500100000HUNTSVILLE CITY SCHOOL DISTRICT                                 Madison                            01089                  2337710  03093013
01504500200000MADISON COUNTY SCHOOL DISTRICT                                  Madison                            01089                  2014910  03093013
01504530100000MADISON CITY SCHOOL DISTRICT                                    Madison                            01089                   866710  03093013
01504600100000DEMOPOLIS CITY SCHOOL DISTRICT                                  Marengo                            01091                   234610  03093013
01504600200000MARENGO COUNTY SCHOOL DISTRICT                                  Marengo                            01091                   150810  03093013
01504670100000LINDEN CITY SCHOOL DISTRICT                                     Marengo                            01091                    51310  03093013
01504700100000MARION COUNTY SCHOOL DISTRICT                                   Marion                             01093                   365010  03093013
01504700200000WINFIELD CITY SCHOOL DISTRICT                                   Marion                             01093                   129310  03093013
01504800100000MARSHALL COUNTY SCHOOL DISTRICT                                 Marshall                           01095                   591610  03093013
01504810100000BOAZ CITY SCHOOL DISTRICT                                       Marshall                           01095                   232210  03    13
01504840100000ALBERTVILLE CITY SCHOOL DISTRICT                                Marshall                           01095                   414410  03093013
01504880100000ARAB CITY SCHOOL DISTRICT                                       Marshall                           01095                   253610  03093013
01504880200000GUNTERSVILLE CITY SCHOOL DISTRICT                               Marshall                           01095                   195210  03093013
01504900100000MOBILE COUNTY SCHOOL DISTRICT                                   Mobile                             01097                  6238310  03093013
01504910100000SARALAND CITY SCHOOLS                                           Mobile                             01097                   197510  03    13
01504910200000CHICKASAW CITY SCHOOLS                                          Mobile                             01097                    86412  03    13
01504910300000SATSUMA CITY SCHOOL DISTRICT                                    Mobile                             01097                   146312  03    13
01505000100000MONROE COUNTY SCHOOL DISTRICT                                   Monroe                             01099                   397810  03093013
01505100100000MONTGOMERY COUNTY SCHOOL DISTRICT                               Montgomery                         01101                  3179010  03093013
01505200100000DECATUR CITY SCHOOL DISTRICT                                    Morgan                             01103                   862710  03093013
01505200200000MORGAN COUNTY SCHOOL DISTRICT                                   Morgan                             01103                   792210  03093013
01505290100000HARTSELLE CITY SCHOOL DISTRICT                                  Morgan                             01103                   314110  03093013
01505300100000PERRY COUNTY SCHOOL DISTRICT                                    Perry                              01105                   183310  03093013
01505400100000PICKENS COUNTY SCHOOL DISTRICT                                  Pickens                            01107                   290510  03093013
01505500100000PIKE COUNTY SCHOOL DISTRICT                                     Pike                               01109                   233210  03093013
01505500200000TROY CITY SCHOOL DISTRICT                                       Pike                               01109                   211110  03093013
01505600100000RANDOLPH COUNTY SCHOOL DISTRICT                                 Randolph                           01111                   231410  03093013
01505600200000ROANOKE CITY SCHOOL DISTRICT                                    Randolph                           01111                   159610  03093013
01505700100000PHENIX CITY SCHOOL DISTRICT                                     Russell                            01113                   653710  03093013
01505700200000RUSSELL COUNTY SCHOOL DISTRICT                                  Russell                            01113                   337910  03093013
01505800100000ST CLAIR COUNTY SCHOOL DISTRICT                                 St Clair                           01115                   857310  03093013
01505860100000PELL CITY SCHOOL DISTRICT                                       St Clair                           01115                   418010  03093013
01505900100000SHELBY COUNTY SCHOOL DISTRICT                                   Shelby                             01117                  2807710  03093013
01506000100000SUMTER COUNTY SCHOOL DISTRICT                                   Sumter                             01119                   206110  03093013
01506100100000SYLACAUGA CITY SCHOOL DISTRICT                                  Talladega                          01121                   244210  03093013
01506100200000TALLADEGA CITY SCHOOL DISTRICT                                  Talladega                          01121                   237710  03093013
01506100300000TALLADEGA COUNTY SCHOOL DISTRICT                                Talladega                          01121                   769610  03093013
01506200100000TALLAPOOSA COUNTY SCHOOL DISTRICT                               Tallapoosa                         01123                   300010  03093013
01506200200000ALEXANDER CITY SCHOOL DISTRICT                                  Tallapoosa                         01123                   328010  03093013
01506300100000TUSCALOOSA CITY SCHOOL DISTRICT                                 Tuscaloosa                         01125                  1034910  03093013
01506300200000TUSCALOOSA COUNTY SCHOOL DISTRICT                               Tuscaloosa                         01125                  1778810  03093013
01506400200000JASPER CITY SCHOOL DISTRICT                                     Walker                             01127                   267310  03093013
01506400300000WALKER COUNTY SCHOOL DISTRICT                                   Walker                             01127                   831210  03093013
01506500100000WASHINGTON COUNTY SCHOOL DISTRICT                               Washington                         01129                   342110  03093013
01506600100000WILCOX COUNTY SCHOOL DISTRICT                                   Wilcox                             01131                   199110  03093013
01506700100000WINSTON COUNTY SCHOOL DISTRICT                                  Winston                            01133                   268310  03093013
01506780100000HALEYVILLE CITY SCHOOL DISTRICT                                 Winston                            01133                   171210  03093013
02000000000000ALASKA                                                                                             02           73843216             063013
02100400100000BRISTOL BAY BOROUGH                                             Bristol Bay Borough                0206099060      89216             063013
02100600200000FAIRBANKS NORTH STAR BOROUGH                                    Fairbanks North Star Borough       0209099090    9963116             063013
02100700300000HAINES BOROUGH                                                  Haines Borough                     0210099100     253416             063013
02100900400000KENAI PENINSULA BOROUGH                                         Kanai Peninsula Borough            0212299122    5805916             063013
02101000500000KETCHIKAN GATEWAY BOROUGH                                       Ketchikan-Gateway Borough          0213099130    1370916             063013
02101101100000NORTHWEST ARCTIC BOROUGH                                        Northwest Arctic Borough           0218899188     775216             063013
02101200600000KODIAK ISLAND BOROUGH                                           Kodiak Island Borough              0215099150    1388916             063013
02101300700000MATANUSKA-SUSITNA BOROUGH                                       Matanuska-Susitna Borough          0217099170   10109516             063013
02101500800000NORTH SLOPE BOROUGH                                             North Slope Borough                0218599185     968716             063013
02102202200000PETERSBURG BOROUGH                                              Wrangell-Petersburg Census Area    0228099195     609606             063013
02102402400000ALEUTIANS EAST BOROUGH                                          Aleutians East Borough             0201399013     334116             063013
02102502500000LAKE AND PENINSULA BOROUGH                                      Lake and Peninsula Borough         0216499164     156316             063013
02102602600000DENALI BOROUGH                                                  Denali Borough                     0206899068     191916             063013
02102702700000YAKUTAT BOROUGH                                                 Yakutat City and Borough           0228299282      61316             063013
02102802800000SKAGWAY BOROUGH                                                 Skagway                            0223099230     105716             063013
02200100400000UNALASKA CITY                                                   Aleutians West Census Area         0201680770     449116             063013
02200200100000ANCHORAGE MUNICIPALITY                                          Anchorage City and Borough         0202003000   29869516             123113
02200300600000BETHEL CITY                                                     Bethel Census Area                 0205006520     645016             063013
02200500700000NEW STUYAHOK CITY                                               Dillingham Census Area             0207053710      52616             063013
02200501000000TOGIAK CITY                                                     Dillingham Census Area             0207077690      84216             063013
02200600100000FAIRBANKS CITY                                                  Fairbanks North Star Borough       0209024230    3232516             123113
02200800100000JUNEAU CITY AND BOROUGH                                         Juneau City and Borough            0211036400    3275616             063013
02200900100000HOMER CITY                                                      Kanai Peninsula Borough            0212233140     551516             123113
02200900300000KENAI CITY                                                      Kanai Peninsula Borough            0212238420     766116             063013
02200900500000SEWARD CITY                                                     Kanai Peninsula Borough            0212268560     279016             123113
02201000100000KETCHIKAN CITY                                                  Ketchikan-Gateway Borough          0213038970     819716             123113
02201200100000AKHIOK CITY                                                     Kodiak Island Borough              0215000650       7216             063013
02201200200000KODIAK CITY                                                     Kodiak Island Borough              0215040950     625316             063013
02201300200000PALMER CITY                                                     Matanuska-Susitna Borough          0217058660     678816             123113
02201300300000WASILLA CITY                                                    Matanuska-Susitna Borough          0217083080     928416             063013
02201400600000KOYUK CITY                                                      Nome Census Area                   0218041940      34216             063013
02201400700000NOME CITY                                                       Nome Census Area                   0218054920     380616             063013
02201500200000BARROW CITY                                                     North Slope Borough                0218505200     438416             063013
02201500400000NUIQSUT CITY                                                    North Slope Borough                0218556320      41616             063013
02201600200000HYDABURG CITY                                                   Prince of Wales-Outer Ketchikan Cen0220134460      39116             063013
02201700100000SITKA CITY AND BOROUGH                                          Sitka City and Borough             0222070540     886316             063013
02201800200000HOONAH CITY                                                     Skagway-Hoonah-Angoon Census Area  0223233360      75716             123113
02202000100000CORDOVA CITY                                                    Valdez-Cordova Census Area         0226117410     219616             123113
02202000200000VALDEZ CITY                                                     Valdez-Cordova Census Area         0226182200     387016             123113
02202100600000KOTLIK CITY                                                     Kusilvak Census Area               0215841720      62616             063013
02202200300000PETERSBURG CITY                                                 Wrangell-Petersburg Census Area    0228060310     294812             063013
02202300500000GALENA CITY                                                     Yukon-Kayukuk Census Area          0229027530      46716             063013
02202400200000KING COVE CITY                                                  Aleutians East Borough             0201339410     100916             063013
02203600100000WRANGELL CITY AND BOROUGH                                                                          02   86380     238216             063013
02400240100000ALEUTIAN REGIONAL HOUSING AUTHORITY                             Anchorage City and Borough         02020                         50  123113
02400240200000COOK INLET REGIONAL HOUSING AUTHORITY                           Anchorage City and Borough         02020                         50  093013
02400240300000NORTH PACIFIC RIM REGIONAL HOUSING AUTHORITY                    Anchorage City and Borough         02020                         50  093013
02400300100000AVCP REGIONAL HOUSING AUTHORITY                                 Bethel Census Area                 02050                         50  093013
02400500100000BRISTOL BAY HOUSING AUTHORITY                                   Dillingham Census Area             02070                         50  123113
02400640100000INTERIOR REGIONAL HOUSING AUTHORITY                             Fairbanks North Star Borough       02090                         50  063013
02400800100000TLINGIT-HAIDA REGIONAL HOUSING AUTHORITY                        Juneau City and Borough            02110                         50  123113
02401010100000SOUTHEAST ALASKA POWER AGENCY                                   Ketchikan-Gateway Borough          02130                         92      13
02401100100000NORTHWEST INUPIAT HOUSING AUTHORITY                             Northwest Arctic Borough           02188                         50  123113
02401200100000KODIAK ISLAND HOUSING AUTHORITY                                 Kodiak Island Borough              02150                         50  093013
02401440100000BERING STRAITS REGIONAL HOUSING AUTHORITY                       Nome Census Area                   02180                         50  123113
02401540100000TAGIUGMIULLU NUNAMIULLU HOUSING AUTHORITY                       North Slope Borough                02185                         50  063013
02401600100000METLAKATLA HOUSING AUTHORITY                                    Prince of Wales-Outer Ketchikan Cen02201                         50  033113
02401740100000BARANOF ISLAND HOUSING AUTHORITY                                Sitka City and Borough             02220                         50  093013
02402040100000COPPER RIVER BASIN REGIONAL HOUSING AUTHORITY                   Valdez-Cordova Census Area         02261                         50  093013
03000000000000ARIZONA                                                                                            04          682806516             063013
03100100100000APACHE COUNTY                                                   Apache                             0400199001    7147416             063013
03100200200000COCHISE COUNTY                                                  Cochise                            0400399003   12642716             063013
03100300300000COCONINO COUNTY                                                 Coconino                           0400599005   13909716             063013
03100400400000GILA COUNTY                                                     Gila                               0400799007    5315916             063013
03100500500000GRAHAM COUNTY                                                   Graham                             0400999009    3766616             063013
03100600600000GREENLEE COUNTY                                                 Greenlee                           0401199011     952916             063013
03100700700000MARICOPA COUNTY                                                 Maricopa                           0401399013  416794716             063013
03100800800000MOHAVE COUNTY                                                   Mohave                             0401599015   20473716             063013
03100900900000NAVAJO COUNTY                                                   Navajo                             0401799017   10827716             063013
03101001000000PIMA COUNTY                                                     Pima                               0401999019  101002516             063013
03101101100000PINAL COUNTY                                                    Pinal                              0402199021   40658416             063013
03101201200000SANTA CRUZ COUNTY                                               Santa Cruz                         0402399023    4646116             063013
03101301300000YAVAPAI COUNTY                                                  Yavapai                            0402599025   22225516             063013
03101401400000YUMA COUNTY                                                     Yuma                               0402799027   20427516             063013
03101501500000LA PAZ COUNTY                                                   La Paz                             0401299012    2015216             063013
03200200400000SIERRA VISTA CITY                                               Cochise                            0400366820    4335516             063013
03200300100000FLAGSTAFF CITY                                                  Coconino                           0400523620    7032016             063013
03200300200000WILLIAMS CITY                                                   Coconino                           0400583160     312216             063013
03200310100000TUSAYAN TOWN                                                    Coconino                           0400577490      56716                 13
03200390100000PAGE CITY                                                       Coconino                           0400551810     749016             063013
03200400100000GLOBE CITY                                                      Gila                               0400728030     739616             053113
03200500300000THATCHER TOWN                                                   Graham                             0400973420     499216             063013
03200700100000AVONDALE CITY                                                   Maricopa                           0401304720    8068416             063013
03200700200000BUCKEYE TOWN                                                    Maricopa                           0401307940    6213816             063013
03200700300000CHANDLER CITY                                                   Maricopa                           0401312000   26082816             063013
03200700500000GILBERT TOWN                                                    Maricopa                           0401327400   24754216             063013
03200700600000GLENDALE CITY                                                   Maricopa                           0401327820   24012616             063013
03200700700000GOODYEAR CITY                                                   Maricopa                           0401328380    7900316             063013
03200700800000MESA CITY                                                       Maricopa                           0401346000   47182516             063013
03200700900000PEORIA CITY                                                     Maricopa                           0401354050   17123716             063013
03200701000000PHOENIX CITY                                                    Maricopa                           0401355000  156302516             063013
03200701100000SCOTTSDALE CITY                                                 Maricopa                           0401365000   23683916             063013
03200701200000TEMPE CITY                                                      Maricopa                           0401373000   17582616             063013
03200740400000FOUNTAIN HILLS TOWN                                             Maricopa                           0401325300    2389916             063013
03200740500000QUEEN CREEK TOWN                                                Maricopa                           0401358150    3461416             063013
03200750200000SURPRISE CITY                                                   Maricopa                           0401371510   12842216             063013
03200790100000GUADALUPE TOWN                                                  Maricopa                           0401330270     617716             063013
03200800100000KINGMAN CITY                                                    Mohave                             0401537620    2891216             063013
03200860100000LAKE HAVASU CITY CITY                                           Mohave                             0401539370    5355316             063013
03201000200000TUCSON CITY                                                     Pima                               0401977000   53164116             063013
03201090100000ORO VALLEY TOWN                                                 Pima                               0401951600    4356516             053113
03201090200000MARANA TOWN                                                     Pima                               0401944270    4131516             063013
03201100100000CASA GRANDE CITY                                                Pinal                              0402110530    5146016             063013
03201200100000NOGALES CITY                                                    Santa Cruz                         0402349640    2025216             063013
03201300200000PRESCOTT CITY                                                   Yavapai                            0402557380    4189916             063013
03201350200000COTTONWOOD CITY                                                 Yavapai                            0402516410    1181816             063013
03201360100000PRESCOTT VALLEY TOWN                                            Yavapai                            0402557450    4219716             063013
03201400300000YUMA CITY                                                       Yuma                               0402785540    9413916             063013
03201460100000SAN LUIS CITY                                                   Yuma                               0402763470    3152016             063013
03400580100000MT GRAHAM HOSPITAL DISTRICT                                     Graham                             04009                         40  063013
03400701100000MARICOPA COUNTY ELECTRICAL DISTRICT 7                           Maricopa                           04013                         92  063013
03400702200000ROOSEVELT IRRIGATION DISTRICT                                   Maricopa                           04013                         64  063013
03400702400000SALT RIVER PROJECT AGRICULTURAL IMPROVEMENT & POWER DISTRICT    Maricopa                           04013                         92  043013
03400710100000MARICOPA COUNTY SPECIAL HEALTH CARE DISTRICT                    Maricopa                           04013                         40  063013
03400710300000VALLEY METRO RAIL INC.                                          Maricopa                           04013                         94  063013
03400710400000CENTRAL ARIZONA GROUNDWATER REPLENISHMENT DISTRICT              Maricopa                           04013                         97      13
03400711100000MORRISON RANCH #49 IWDD                                         Maricopa                           04013                         64      13
03400719300000PALOMA IRRIGATION AND DRAINAGE DISTRICT                         Maricopa                           04013                         99      13
03400720300000AGUILA IRRIGATION DISTRICT                                      Maricopa                           04013                         92  063013
03400720400000DAISY MOUNTAIN FIRE DISTRICT                                    Maricopa                           04013                         24  063013
03400720500000HARQUAHALA VALLEY POWER DISTRICT                                Maricopa                           04013                         92  063013
03400731100000PHOENIX-MESA GATEWAY AIRPORT AUTHORITY                          Maricopa                           04013                         01  063013
03400740200000ELECTRICAL DISTRICT 8                                           Maricopa                           04013                         92  063013
03400740900000HARQUAHALA VALLEY FIRE DISTRICT                                 Maricopa                           04013                         24  063013
03400741300000REGIONAL PUBLIC TRANSPORTATION AUTHORITY                        Maricopa                           04013                         94  063013
03400760300000CENTRAL ARIZONA WATER CONSERVATION DISTRICT                     Maricopa                           04013                         99  123113
03400761500000WESTERN MEADOWS IRRIGATION DISTRICT                             Maricopa                           04013                         92  063013
03400780800000FOUNTAIN HILLS SANITARY DISTRICT                                Maricopa                           04013                         80  063013
03400840500000MOHAVE COUNTY HOSPITAL DISTRICT 1                               Mohave                             04015                         40  063013
03400980100000NAVAPACHE HOSPITAL DISTRICT                                     Navajo                             04017                         40  063013
03401000100000FLOWING WELLS IRRIGATION DISTRICT                               Pima                               04019                         91  063013
03401010100000PIMA COUNTY REGIONAL TRANSPORTATION AUTHORITY                   Pima                               04019                         99  063013
03401010400000ARIVACA FIRE DISTRICT                                           Pima                               04019                         24      13
03401040100000NORTHWEST FIRE DISTRICT                                         Pima                               04019                         24  063013
03401061000000DREXEL HEIGHTS FIRE DISTRICT                                    Pima                               04019                         24  063013
03401100200000PINAL COUNTY ELECTRICAL DISTRICT 2                              Pinal                              04021                         92  123113
03401100300000PINAL COUNTY ELECTRICAL DISTRICT 3                              Pinal                              04021                         92  123113
03401100400000PINAL COUNTY ELECTRICAL DISTRICT 4                              Pinal                              04021                         92  123113
03401100500000PINAL COUNTY ELECTRICAL DISTRICT 5                              Pinal                              04021                         92  123113
03401160100000PINAL ELECTRIC DISTRICT 6                                       Pinal                              04021                         92  033113
03401160400000SUPERSTITION FIRE & MEDICAL DISTRICT                            Pinal                              04021                         24  063013
03401170400000MARICOPA STANFIELD IRRIGATION AND DRAINAGE DISTRICT             Pinal                              04021                         64  123113
03401180100000CENTRAL ARIZONA IRRIGATION AND DRAINAGE DISTRICT                Pinal                              04021                         64  123113
03401310400000NORTHERN ARIZONA INTERGOVERNMENTAL PUBLIC TRANSPORTATION AUTHORIYavapai                            04025                         94  063013
03401400300000WELLTON MOHAWK IRRIGATION DRAINAGE DISTRICT                     Yuma                               04027                         99  123113
03401400400000YUMA COUNTY HOSPITAL DISTRICT 1                                 Yuma                               04027                         40  063013
03500100100000ALPINE SCHOOL DISTRICT 7                                        Apache                             04001                     6410  01063013
03500100300000CHINLE UNIFIED SCHOOL DISTRICT 24                               Apache                             04001                   380310  03063013
03500100400000CONCHO SCHOOL DISTRICT 6                                        Apache                             04001                    23710  01063013
03500100600000GANADO UNIFIED SCHOOL DISTRICT 20                               Apache                             04001                   157910  03063013
03500100800000MCNARY SCHOOL DISTRICT 23                                       Apache                             04001                    17010  01063013
03500101200000SANDERS UNIFIED SCHOOL DISTRICT 18                              Apache                             04001                    97010  03063013
03500101300000ST JOHNS UNIFIED SCHOOL DISTRICT 1                              Apache                             04001                    86010  03063013
03500101400000ROUND VALLEY UNIFIED SCHOOL DISRICT 10                          Apache                             04001                   141810  03063013
03500101600000WINDOW ROCK CONSOLIDATED SCHOOL DISTRICT 8                      Apache                             04001                   239910  03063013
03500140100000RED MESA UNIFIED SCHOOL DISTRICT 27                             Apache                             04001                   101210  03063013
03500140200000VERNON ELEMENTARY SCHOOL DISTRICT 9                             Apache                             04001                    17010  01063013
03500200100000APACHE SCHOOL DISTRICT 42                                       Cochise                            04003                     1010  01063013
03500200200000ASH CREEK SCHOOL DISTRICT 53                                    Cochise                            04003                     4410  01063013
03500200500000BISBEE UNIFIED SCHOOL DISTRICT 2                                Cochise                            04003                    76910  03063013
03500200600000BOWIE SCHOOL DISTRICT 14                                        Cochise                            04003                     7910  03063013
03500200700000SIERRA VISTA UNIFIED SCHOOL DISTRICT 68                         Cochise                            04003                   559810  03063013
03500200800000COCHISE SCHOOL DISTRICT 26                                      Cochise                            04003                     8610  01063013
03500200900000DOUBLE ADOBE SCHOOL DISTRICT 45                                 Cochise                            04003                     7310  01063013
03500201000000DOUGLAS SCHOOL DISTRICT 27                                      Cochise                            04003                   412110  03063013
03500201200000ELFRIDA SCHOOL DISTRICT 12                                      Cochise                            04003                    12410  01063013
03500201400000MCNEAL SCHOOL DISTRICT 55                                       Cochise                            04003                     8210  01063013
03500201500000NACO SCHOOL DISTRICT 23                                         Cochise                            04003                    41210  01063013
03500201600000PALOMINAS SCHOOL DISTRICT 49                                    Cochise                            04003                   141810  01063013
03500201700000PEARCE SCHOOL DISTRICT 22                                       Cochise                            04003                     8910  01063013
03500201800000VALLEY UNION HIGH SCHOOL DISTRICT 22                            Cochise                            04003                    12110  02063013
03500201900000POMERENE SCHOOL DISTRICT 64                                     Cochise                            04003                    17310  01063013
03500202300000ST DAVID SCHOOL DISTRICT 21                                     Cochise                            04003                    44710  03063013
03500202400000SAN SIMON SCHOOL DISTRICT 18                                    Cochise                            04003                     9510  03063013
03500202500000TOMBSTONE SCHOOL DISTRICT 1                                     Cochise                            04003                    84110  03063013
03500202700000WILLCOX SCHOOL DISTRICT 13                                      Cochise                            04003                   129510  03063013
03500210100000COCHISE TECHNOLOGY DISTRICT                                     Cochise                            04003                   192105  05    13
03500230100000BENSON UNIFIED SCHOOL DISTRICT                                  Cochise                            04003                   111410  03063013
03500270100000COCHISE COUNTY COMMUNITY COLLEGE DISTRICT                       Cochise                            04003                   426506  04063013
03500300100000FLAGSTAFF SCHOOL DISTRICT 1                                     Coconino                           04005                  1014410  03063013
03500300200000FREDONIA-MOCCASIN BI-COUNTY SCHOOL DISTRICT 6                   Coconino                           04005                    31010  03063013
03500300300000GRAND CANYON SCHOOL DISTRICT 4                                  Coconino                           04005                    29310  03063013
03500300400000MAINE CONSOLIDATED SCHOOL DISTRICT 10                           Coconino                           04005                    14410  01063013
03500300500000TUBA CITY UNIFIED SCHOOL DISTRICT 15                            Coconino                           04005                   169710  03063013
03500300600000WILLIAMS SCHOOL DISTRICT 2                                      Coconino                           04005                    66510  03063013
03500310100000COCONINO ASSOCIATION FOR VOCATION INDUSTRY & TECHNOLOGY(CAVIAT) Coconino                           04005                   116005  05    13
03500330100000COCONINO COMMUNITY COLLEGE DISTRICT                             Coconino                           04005                   344606  04063013
03500350100000CHEVELON BUTTE SCHOOL DISTRICT 5                                Coconino                           04005                      010  06063013
03500380100000PAGE SCHOOL DISTRICT 8                                          Coconino                           04005                   272610  03063013
03500400100000GLOBE SCHOOL DISTRICT 1                                         Gila                               04007                   177810  03063013
03500400200000HAYDEN-WINKELMAN SCHOOL DISTRICT 41                             Gila                               04007                    36510  03063013
03500400300000MIAMI UNIFIED SCHOOL DISTRICT 40                                Gila                               04007                   121310  03063013
03500400400000TONTO SCHOOL DISTRICT 33                                        Gila                               04007                    10210  01063013
03500400500000PAYSON UNIFIED SCHOOL DISTRICT 10                               Gila                               04007                   241310  03063013
03500400600000PINE-STRAWBERRY SCHOOL DISTRICT 12                              Gila                               04007                    15510  01063013
03500400700000SAN CARLOS UNIFIED SCHOOL DISTRICT 20                           Gila                               04007                    99310  03063013
03500401000000YOUNG SCHOOL DISTRICT 5                                         Gila                               04007                     6010  03063013
03500410100000GILA INSITUTE FOR TECHNOLOGY                                    Gila                               04007                   140705  05    13
03500430100000COBRE VALLEY INSTITUTE OF TECHNOLOGY DISTRICT                   Gila                               04007                    52005  05    13
03500500100000BONITA SCHOOL DISTRICT 16                                       Graham                             04009                     9210  01063013
03500500200000GRAHAM COUNTY COMMUNITY COLLEGE DIST (EASTERN ARIZONA COLLEGE)  Graham                             04009                   525506  04063013
03500500300000FT THOMAS SCHOOL DISTRICT 7                                     Graham                             04009                    52310  03063013
03500500400000KLONDYKE SCHOOL DISTRICT 9                                      Graham                             04009                      010  06063013
03500500500000PIMA UNIFIED SCHOOL DISTRICT 6                                  Graham                             04009                    79110  03063013
03500500600000SAFFORD SCHOOL DISTRICT 1                                       Graham                             04009                   308910  03063013
03500500700000SOLOMONVILLE SCHOOL DISTRICT 5                                  Graham                             04009                    24910  01063013
03500500800000THATCHER SCHOOL DISTRICT 4                                      Graham                             04009                   141410  03063013
03500600100000BLUE SCHOOL DISTRICT 22                                         Greenlee                           04011                      010  06063013
03500600200000CLIFTON SCHOOL DISTRICT 3                                       Greenlee                           04011                      010  06063013
03500600300000DUNCAN UNIFIED SCHOOL DISTRICT 2                                Greenlee                           04011                    36410  03063013
03500600400000MORENI SCHOOL DISTRICT 18                                       Greenlee                           04011                   118610  03063013
03500690100000EAGLE ELEMENTARY DISTRICT 45                                    Greenlee                           04011                      010  06063013
03500700100000AGUILA SCHOOL DISTRICT 63                                       Maricopa                           04013                    21810  01063013
03500700200000ALHAMBRA SCHOOL DISTRICT 68                                     Maricopa                           04013                  1402010  01063013
03500700300000ARLINGTON SCHOOL DISTRICT 47                                    Maricopa                           04013                    26310  01063013
03500700400000AVONDALE SCHOOL DISTRICT 44                                     Maricopa                           04013                   603910  01063013
03500700500000BALSZ SCHOOL DISTRICT 31                                        Maricopa                           04013                   275110  01063013
03500700600000BUCKEYE SCHOOL DISTRICT 33                                      Maricopa                           04013                   440710  01063013
03500700700000BUCKEYE UNION HIGH SCHOOL DISTRICT 201                          Maricopa                           04013                   368110  02063013
03500700800000CARTWRIGHT SCHOOL DISTRICT 83                                   Maricopa                           04013                  1766810  01063013
03500700900000CAVE CREEK UNIFIED SCHOOL DISTRICT 93                           Maricopa                           04013                   576810  03063013
03500701000000CHANDLER UNIFIED SCHOOL DISTRICT 80                             Maricopa                           04013                  3885210  03063013
03500701100000CREIGHTON ELEMENTARY SCHOOL DISTRICT 14                         Maricopa                           04013                   669510  01063013
03500701300000DYSART SCHOOL DISTRICT 89                                       Maricopa                           04013                  2451410  03063013
03500701400000FOWLER SCHOOL DISTRICT 45                                       Maricopa                           04013                   460910  01063013
03500701500000GILA BEND UNIFIED SCHOOL DISTRICT 24                            Maricopa                           04013                    45910  03063013
03500701600000GILBERT SCHOOL DISTRICT 41                                      Maricopa                           04013                  3834710  03063013
03500701700000GLENDALE ELEMENTARY SCHOOL DISTRICT 40                          Maricopa                           04013                  1271810  01063013
03500701800000GLENDALE UNION HIGH SCHOOL DISTRICT 205                         Maricopa                           04013                  1484110  02063013
03500701900000HIGLEY UNIFIED SCHOOL DISTRICT                                  Maricopa                           04013                  1009010  03063013
03500702000000ISAAC SCHOOL DISTRICT 5                                         Maricopa                           04013                   740610  01063013
03500702100000KYRENE SCHOOL DISTRICT 28                                       Maricopa                           04013                  1781010  01063013
03500702200000LAVEEN SCHOOL DISTRICT 59                                       Maricopa                           04013                   517110  01063013
03500702300000LIBERTY SCHOOL DISTRICT 25                                      Maricopa                           04013                   350310  01063013
03500702400000LITCHFIELD ELEMENTARY SCHOOL DISTRICT 79                        Maricopa                           04013                  1030010  01063013
03500702500000LITTLETON ELEMENTARY SCHOOL DISTRICT 65                         Maricopa                           04013                   511410  01063013
03500702600000MADISON ELEMENTARY SCHOOL DISTRICT 38                           Maricopa                           04013                   572110  01063013
03500702700000MESA UNIFIED SCHOOL DISTRICT                                    Maricopa                           04013                  6511010  03063013
03500702800000MOBILE ELEMENTARY SCHOOL DISTRICT 86                            Maricopa                           04013                     2010  01063013
03500702900000MORRISTOWN SCHOOL DISTRICT 75                                   Maricopa                           04013                    21510  01063013
03500703000000MURPHY SCHOOL DISTRICT 21                                       Maricopa                           04013                   208910  01063013
03500703100000NADABURG SCHOOL DISTRICT 81                                     Maricopa                           04013                   103410  01063013
03500703200000OSBORN SCHOOL DISTRICT 8                                        Maricopa                           04013                   308710  01063013
03500703300000PALO VERDE SCHOOL DISTRICT 49                                   Maricopa                           04013                    49710  01063013
03500703400000PENDERGAST SCHOOL DISTRICT 92                                   Maricopa                           04013                   966410  01063013
03500703500000PEORIA UNIFIED SCHOOL DISTRICT 11                               Maricopa                           04013                  3687710  03063013
03500703600000PHOENIX ELEMENTARY SCHOOL DISTRICT 1                            Maricopa                           04013                   710010  01063013
03500703700000PHOENIX UNION HIGH SCHOOL DISTRICT 210                          Maricopa                           04013                  2405910  02063013
03500703800000QUEEN CREEK SCHOOL DISTRICT 95                                  Maricopa                           04013                   527610  03063013
03500703900000RIVERSIDE SCHOOL DISTRICT 2                                     Maricopa                           04013                    73910  01063013
03500704000000ROOSEVELT SCHOOL DISTRICT 66                                    Maricopa                           04013                  1049010  01063013
03500704100000SCOTTSDALE UNIFIED SCHOOL DISTRICT 48                           Maricopa                           04013                  2615010  03063013
03500704200000SENTINEL SCHOOL DISTRICT 71                                     Maricopa                           04013                      510  01063013
03500704300000PARADISE VALLEY SCHOOL DISTRICT 69 AND 217                      Maricopa                           04013                  3299510  03063013
03500704400000TEMPE ELEMENTARY SCHOOL DISTRICT 3                              Maricopa                           04013                  1206310  01063013
03500704500000TEMPE UNION HIGH SCHOOL DISTRICT 213                            Maricopa                           04013                  1385010  02063013
03500704600000PALOMA SCHOOL DISTRICT 94                                       Maricopa                           04013                     9510  01063013
03500704700000TOLLESON ELEMENTARY SCHOOL DISTRICT 17                          Maricopa                           04013                   270910  01063013
03500704800000TOLLESON UNION HIGH SCHOOL DISTRICT 214                         Maricopa                           04013                   937310  02063013
03500704900000UNION SCHOOL DISTRICT 62                                        Maricopa                           04013                   164810  01063013
03500705000000WASHINGTON SCHOOL DISTRICT 6                                    Maricopa                           04013                  2232310  01063013
03500705100000WICKENBURG UNIFIED SCHOOL DISTRICT 9                            Maricopa                           04013                   119410  03063013
03500705200000WILSON SCHOOL DISTRICT 7                                        Maricopa                           04013                   108010  01063013
03500710100000WESTERN MARICOPA EDUCATION CENTER                               Maricopa                           04013                   752605  05    13
03500720200000EAST VALLEY INSTITUTE OF TECHNOLOGY DISTRICT                    Maricopa                           04013                  1402405  05063013
03500750100000DEER VALLEY UNIFIED SCHOOL DISTRICT                             Maricopa                           04013                  3518810  03063013
03500750200000AGUA FRIA UNION HIGH SCHOOL DISTRICT 216                        Maricopa                           04013                   674010  02063013
03500770100000MARICOPA COUNTY COMMUNITY COLLEGE DISTRICT                      Maricopa                           04013                 12277406  04063013
03500770200000SADDLE MOUNTAIN UNIFIED SCHOOL DISTRICT                         Maricopa                           04013                   128810  03063013
03500790100000FOUNTAIN HILLS SCHOOL DISTRICT 98                               Maricopa                           04013                   203910  03063013
03500800200000BULLHEAD CITY SCHOOL DISTRICT 15                                Mohave                             04015                   332810  01063013
03500800400000HACKBERRY SCHOOL DISTRICT 3                                     Mohave                             04015                     3510  01063013
03500800500000KINGMAN UNIFIED SCHOOL DISTRICT 20                              Mohave                             04015                   722310  03063013
03500800600000LITTLEFIELD SCHOOL DISTRICT 9                                   Mohave                             04015                    50310  03063013
03500801000000MOHAVE VALLEY SCHOOL DISTRICT 16                                Mohave                             04015                   175910  01063013
03500801100000OWENS WHITNEY SCHOOL DISTRICT 6                                 Mohave                             04015                     3510  01063013
03500801200000PEACH SPRINGS UNIFIED SCHOOL DISTRICT                           Mohave                             04015                    11210  01063013
03500801300000COLORADO CITY UNIFIED SCHOOL DISTRICT 14                        Mohave                             04015                    37810  03063013
03500801400000TOPOCK SCHOOL DISTRICT 12                                       Mohave                             04015                    13810  01063013
03500801500000VALENTINE SCHOOL DISTRICT 22                                    Mohave                             04015                     7610  01063013
03500801600000YUCCA SCHOOL DISTRICT 13                                        Mohave                             04015                     2510  01063013
03500810100000WESTERN ARIZONA VOCATIONAL DISTRICT #50                         Mohave                             04015                      610  05    13
03500820100000COLORADO R UNION HIGH SCHOOL DISTRICT 2                         Mohave                             04015                   239210  02063013
03500870100000LAKE HAVASU UNIFIED SCHOOL DISTRICT 1                           Mohave                             04015                   588910  03063013
03500880100000MOHAVE COMMUNITY COLLEGE                                        Mohave                             04015                   580006  04063013
03500900300000HOLBROOK UNIFIED SCHOOL DISTRICT 3                              Navajo                             04017                   200210  03063013
03500900400000JOSEPH CITY SCHOOL DISTRICT 2                                   Navajo                             04017                    50410  03063013
03500900500000KAYENTA UNIFIED SCHOOL DISTRICT 27                              Navajo                             04017                   209610  03063013
03500900600000CEDAR UNIFIED SCHOOL DISTRICT 25                                Navajo                             04017                    29210  03063013
03500900700000BLUE RIDGE UNIFIED SCHOOL DISTRICT 32                           Navajo                             04017                   240210  03063013
03500901300000SHOW LOW UNIFIED SCHOOL DISTRICT 10                             Navajo                             04017                   228410  03063013
03500901600000SNOWFLAKE UNIFIED SCHOOL DISTRICT 5                             Navajo                             04017                   263110  03063013
03500901800000WHITERIVER UNIFIED SCHOOL DISTRICT 20                           Navajo                             04017                   216510  03063013
03500901900000WINSLOW UNIFIED SCHOOL DISTRICT 1                               Navajo                             04017                   121710  03063013
03500910100000NORTHERN ARIZONA VOCATIONAL INSTITUTE OF TECHNOLOGY             Navajo                             04017                   501605  05    13
03500910200000NORTHEAST ARIZONA TECHNOLOGICAL INSTITUTE OF VOCATIONAL EDUCATIONavajo                             04017                   157005  05    13
03500940100000PINON SCHOOL UNIFIED SCHOOL DISTRICT 4                          Navajo                             04017                   124610  03063013
03500940200000HEBER OVERGAARD SCHOOL DISTRICT                                 Navajo                             04017                    49110  03063013
03500960200000NORTHLAND PIONEER COLLEGE                                       Navajo                             04017                   425006  04063013
03501000100000AJO SCHOOL DISTRICT 15 AND 103                                  Pima                               04019                    43910  03063013
03501000200000AMPHITHEATER SCHOOL DISTRICT 10                                 Pima                               04019                  1469310  03063013
03501000300000CATALINA FOOTHILLS SCHOOL DISTRICT 16                           Pima                               04019                   488010  03063013
03501000400000CONTINENTAL SCHOOL DISTRICT 39                                  Pima                               04019                    70610  01063013
03501000500000EMPIRE SCHOOL DISTRICT 37                                       Pima                               04019                      010  06063013
03501000600000FLOWING WELLS SCHOOL DISTRICT 8                                 Pima                               04019                   539210  03063013
03501000700000INDIAN OASIS-BABOQUIVARA UNIFIED SCHOOL DISTRICT 40             Pima                               04019                    94910  03063013
03501001000000MARANA UNIFIED SCHOOL DISTRICT 6                                Pima                               04019                  1287810  03063013
03501001100000REDINGTON SCHOOL DISTRICT 44                                    Pima                               04019                      010  06063013
03501001200000SAHUARITA SCHOOL DISTRICT 30                                    Pima                               04019                   497810  03063013
